:020000040800F2
:10000000A007002089010008D31700087115000817
:10001000D11700088F020008351D000800000000FD
:10002000000000000000000000000000D7170008DA
:100030009102000800000000D5170008D917000839
:10004000A3010008A3010008A3010008A301000800
:10005000A3010008A3010008A3010008A3010008F0
:10006000A3010008A3010008A3010008A3010008E0
:10007000A3010008A3010008A3010008A3010008D0
:10008000A3010008A3010008A3010008A3010008C0
:10009000A3010008A3010008A3010008A3010008B0
:1000A000A3010008A3010008A3010008A3010008A0
:1000B000A30100083D18000800000000A30100088B
:1000C000A30100080000000000000000A3010008D8
:1000D00000000000911C0008A301000800000000BF
:1000E00093020008A3010008A301000800F002F831
:1000F00000F03AF80AA090E8000C82448344AAF188
:100100000107DA4501D100F02FF8AFF2090EBAE885
:100110000F0013F0010F18BFFB1A43F0010318473B
:100120004829000068290000103A24BF78C878C127
:10013000FAD8520724BF30C830C144BF04680C60ED
:10014000704700000023002400250026103A28BF35
:1001500078C1FBD8520728BF30C148BF0B60704739
:100160001FB51FBD10B510BD00F058F81146FFF7C0
:10017000F7FF01F02FFE00F076F803B4FFF7F2FF6F
:1001800003BC00F07DF8000009488047094800479B
:10019000FEE7FEE7FEE7FEE7FEE7FEE7FEE7FEE737
:1001A000FEE7FEE704480549054A064B7047000094
:1001B0003B180008ED000008A0010020A007002067
:1001C000A0030020A00300204FF0000200B513465A
:1001D00094469646203922BFA0E80C50A0E80C5067
:1001E000B1F12001BFF4F7AF090728BFA0E80C5018
:1001F00048BF0CC05DF804EB890028BF40F8042B11
:1002000008BF704748BF20F8022B11F0804F18BF7D
:1002100000F8012B7047704770477047754600F033
:100220002BF8AE4605006946534620F00700854688
:1002300018B020B5FFF7B6FFBDE820404FF000062C
:100240004FF000074FF000084FF0000B21F00701BE
:10025000AC46ACE8C009ACE8C009ACE8C009ACE801
:10026000C0098D46704710B50446AFF300802046A4
:10027000BDE81040FFF781BF0048704740010020F3
:1002800001491820ABBEFEE7260002007047FEE7DA
:1002900070474FF4005000F0A9B872B6FEE710B5F1
:1002A00090F821100022022905D00421816380F8F2
:1002B0002020012010BD01680B6823F00E030B60A5
:1002C00001680B6823F001030B6090F84030C46BA9
:1002D000012101FA03F3636080F8211080F82020E7
:1002E000104610BD10B590F821100024022903D04B
:1002F0000421816301243DE001680A6822F00E02B6
:100300000A6001680A6822F001020A601A4A01685C
:10031000914201D1012121E0174A1432914201D1C9
:1003200010211BE0144A2832914201D1891515E0B1
:10033000114A3C32914201D189140FE00E4A5032E9
:10034000914202D14FF4803108E00B4A643291426D
:1003500002D14FF4801101E04FF08071064A083A53
:100360005160012180F82110002180F82010416B9C
:1003700001B18847204610BD0800024010B54FF477
:100380000051144800F01EF9134C012819D02046E2
:1003900000F0D6FC2068406A104C80B2208001F04A
:1003A0003FFF00220E4B01F0E3FD0E4A0E4B01F021
:1003B0004BFF4FF0FF3202F0FCFA01F09FFD60604E
:1003C00010BD216800204862BDE81040024800F0DE
:1003D00095BC0000000C014020000020040000201B
:1003E00000002440C3F5285C8FC2D53F044910B5F6
:1003F0000A68024202D00860FFF7C0FF10BD00008B
:10040000140401402DE9F84FDFF89C910024A9F174
:10041000040B23460F2709F1040AABF1040EBBE0DD
:100420000125A5402A40AA4276D1DFF880C14E6856
:10043000A6EB0C0866452BD00DDC032E34D005DC72
:1004400036B3012E19D0022E2FD11BE0112E16D05B
:10045000122E2AD119E0B8F5881F19D006DCB8F59C
:10046000803F15D0B8F5801F1FD111E0B8F5001FEF
:100470000ED0B8F5041F18D10AE0CB6815E0CB68A0
:100480001B1D12E0CB6808330FE0CB680C330CE087
:100490008B682BB1012B4FF0080303D0456104E0BA
:1004A000042302E0056100E00023FF2A01D806468C
:1004B00001E000F104064FEA840501D9A5F1200509
:1004C000D6F8008007FA05FC28EA0C0803FA05F5BF
:1004D00048EA0508C6F800804D68ED005BD5344D4C
:1004E000AE6946F00106AE61AD6924F0030605F081
:1004F000010500952F4D06EB050CDCF80850A6070A
:10050000360F07FA06F825EA0805DFF8AC80404503
:1005100003D14FF0000810E03DE0DFF8A080404537
:1005200002D14FF0010808E0DFF89480404502D185
:100530004FF0020801E04FF0030808FA06F848EA15
:100540000508CCF808804D68D9F80060ED024D46EA
:1005500001D5164300E096432E604D68DAF800603E
:10056000AD02554601D5164300E096432E604D6816
:10057000DBF80060AD035D4601D5164300E096430D
:100580002E604D68DEF80060ED03754601D5164318
:1005900000E096432E60641C0A6832FA04F57FF48A
:1005A0003FAFBDE8F88F00000804014000001110C3
:1005B000001002400000014000080140000C014012
:1005C000001001408068084000D0012070470AB147
:1005D000016170470904FBE701488068704700002B
:1005E0001000002002488168027811448160704741
:1005F00010000020074810B5016841F010010160AB
:10060000032000F075F80F2000F006F800F024F841
:10061000002010BD0020024070B50D4D04464FF47F
:100620007A712878B1FBF0F00A490968B1FBF0F063
:1006300000F0DCFA48B9102C07D200222146501EE7
:1006400000F036F800206C6070BD012070BD000025
:10065000100000201C0000200C4808B5816941F002
:1006600001018161816901F001010091C16941F0DD
:100670008051C161C06900F0805000900448416819
:1006800021F0E06141F00071416008BD00100240BE
:1006900000000140002809DB00F01F020121914009
:1006A0004009800000F1E020C0F800117047000010
:1006B000F0B40E4B1B680C46C3F30223C3F10705CD
:1006C000042D00D90425191D072901D2002300E0BB
:1006D000DB1E012606FA05F1491E214099409E4085
:1006E000761E16403143F0BC01F025BB0CED00E056
:1006F000064900F0070208684FF6FF03184040EA79
:100700000220034A10430860704700000CED00E02F
:100710000000FA052DE9F0470F46050061D0434E71
:10072000306800F00700B84209D2306820F00700B6
:1007300038433060306800F00700B84251D1286873
:100740003B4C810712D5400703D5606840F4E06058
:1007500060602878000703D5606840F460506060EE
:100760006068A96820F0F000084360602878C0073E
:1007700028D06868012810D02168022810D0890785
:1007800000292EDA616821F0030101436160FFF75F
:1007900023FF804641F288390DE021688903EFE7A5
:1007A0008901EDE7FFF718FFA0EB0801494502D9E1
:1007B0000320BDE8F0876068696800F00C00B0EBCA
:1007C000810FEFD1306800F00700B8420BD93068D4
:1007D00020F0070038433060306800F00700B8426E
:1007E00001D00120E5E72878400705D56068E96871
:1007F00020F4E060084360602878000706D5606850
:10080000296920F4605040EAC100606000F038F8C7
:100810006168084AC1F30311515CC8400649086089
:1008200006480068FFF7F8FE0020C2E700200240FB
:1008300000100240502A00081C0000201400002074
:100840000448054900684968044AC1F30221515C23
:10085000C84070471C00002000100240602A0008B9
:100860000448054900684968044AC1F3C221515C43
:10087000C84070471C00002000100240602A000899
:100880000E4A51680E4801F00C03042B11D0082BBE
:100890000FD10C48C1F38343C903C05C0AD551682A
:1008A000084AC1F34041921E515C054A5043B0FBD7
:1008B000F1F07047044948437047000000100240BF
:1008C00000127A00402A000800093D002DE9F84F87
:1008D000040070D02078C04DC00749D06868C0F3CC
:1008E0008100012807D06868C0F38100022809D17F
:1008F0006868C00306D52868800339D56068002879
:10090000E7D035E06068B0F5803F0BD010B1B0F5AE
:10091000A02F11D0286820F480302860286820F4A7
:10092000802002E0286840F480302860606890B140
:10093000FFF752FE06460AE0286840F4802028604F
:10094000F0E700BFFFF748FE801B642873D82868D3
:100950008003F7D50CE0FFF73FFE064605E000BF39
:10096000FFF73AFE801B6428F0D828688003F7D48C
:1009700020789A4E80074FF001094FF0000839D5D2
:10098000686810F00C0F07D06868C0F38100022877
:1009900009D16868C00306D42868800714D5206987
:1009A000012808D110E02069B0B1C6F80090FFF727
:1009B00013FE074605E00AE1FFF70EFEC01B022802
:1009C000C4D828688007F7D52868616920F0F80046
:1009D00040EAC10028600DE0C6F80080FFF7FCFD8A
:1009E000074604E0FFF7F8FDC01B022823D828685B
:1009F0008007F7D4207800072CD57948A169D9B1B0
:100A0000C0F80090FFF7E8FD074604E0FFF7E4FDBB
:100A1000C01B02280FD8686A8007F7D571484FF4C9
:100A2000FA510068B0FBF1F0009000BF0098411E41
:100A30000091FAD20EE080E0C0F80080FFF7CCFD14
:100A4000074604E0FFF7C8FDC01B022875D8686A96
:100A50008007F7D42078400760D5E8690027C000F8
:100A600008D4E86940F08050E861E869012700F0A7
:100A7000805000905C480168C90513D40168834622
:100A800041F480710160FFF7A7FD824606E000BFD8
:100A9000FFF7A2FDA0EB0A0064284ED8DBF80000A7
:100AA000C005F5D5E06801280AD008B1052813D0A3
:100AB000286A20F001002862286A20F0040002E081
:100AC000286A40F001002862E06841F2883B98B152
:100AD000FFF782FD82460BE0286A40F0040028629E
:100AE000EEE700BFFFF778FDA0EB0A0159455AD8A1
:100AF000286A8007F6D50CE0FFF76EFD824605E018
:100B0000FFF76AFDA0EB0A0159454CD8286A800717
:100B1000F6D41FB1E86920F08050E861E06988B33D
:100B20006968C1F38101022944D00228C6F86080B7
:100B300004D0FFF751FD044638E034E0FFF74CFDE8
:100B4000074604E0FFF748FDC01B02282BD82868A1
:100B50008001F7D4206AB0F5803F05D16868A168AC
:100B600020F4003008436860D4E90801084369684C
:100B700021F4741108436860C6F86090FFF72CFDFB
:100B8000044606E025E000BFFFF726FD001B022813
:100B900009D828688001F7D51BE000BFFFF71CFDCE
:100BA000001B022802D90320BDE8F88F28688001C5
:100BB000F4D40EE00128F7D06868226A00F480318E
:100BC000914204D1616A00F47010884201D0012082
:100BD000EAE70020E8E7000000100240000042427F
:100BE000800442421C0000200070004010B5401EEE
:100BF000B0F1807F01D3012010BD4FF0E02460618F
:100C00000F21601701F097F80020A06107202061F4
:100C1000002010BD7047704770B590F83C20012A45
:100C200023D0012480F83C40022280F83D20036854
:100C30005A689D6822F070060A6832435A600C4B6D
:100C400002689A4205D0B2F1804F02D0094B9A4215
:100C500004D1496825F080031943916080F83D4034
:100C6000002180F83C10084670BD022070BD0000D5
:100C7000002C01400004004010B5040003D094F89B
:100C80003D0010B107E0012010BD002084F83C00B9
:100C9000204600F01FF8022084F83D00211D206846
:100CA00000F0D2FD012084F8460084F83E0084F86C
:100CB0003F0084F8400084F8410084F8420084F842
:100CC000430084F8440084F8450084F83D00002087
:100CD00010BD000008B500680649884208D10648E2
:100CE000816941F400618161806900F400600090D5
:100CF00008BD0000002C01400010024090F83D109B
:100D0000012901D001207047022180F83D100068C0
:100D10000949884205D0B0F1804F02D00749884286
:100D200004D1816801F00701062903D0016841F070
:100D30000101016000207047002C014000040040C8
:100D400001680A6A41F211131A4207D10A6A9B101C
:100D50001A4203D10A6822F001020A60012180F8D8
:100D60003D100020704770B5044690F83C00002507
:100D7000012817D0012684F83C60022084F83D0049
:100D80002068826822F0770222F47F42826008683D
:100D9000502838D00DDC20284FD005DC90B3102827
:100DA00011D14AE0022070BD302846D040280AD137
:100DB0003BE060282FD070280DD0B0F5805F03D0C5
:100DC000B0F5005F12D0012584F83D60002084F862
:100DD0003C00284670BDCB68D1E90121206800F0B5
:100DE00076FD2068816841F0770109E0CB68D1E9A0
:100DF0000121206800F06BFD2068816841F480418A
:100E00008160E1E719E0CA684968206800F014FED3
:100E10005021206806E0CA684968206800F01DFE7D
:100E20006021206800F05DFDCEE7CA68496820684F
:100E300000F002FE40212068F4E7226801461046D7
:100E4000F0E770472DE9F04104460068C66805697F
:100E50004FF00007A90713D5B10711D5F91E01619D
:100E600001202077206880698007204602D0FFF7A4
:100E7000E8FF04E000F0B8F8204600F071F92777A9
:100E8000680716D5700714D521686FF00400086153
:100E9000022020772068806910F4407F204602D02D
:100EA000FFF7CFFF04E000F09FF8204600F058F96C
:100EB0002777280715D5300713D521686FF008006C
:100EC0000861042020772068C0698007204602D08E
:100ED000FFF7B7FF04E000F087F8204600F040F984
:100EE0002777E80616D5F00614D521686FF01000B4
:100EF0000861082020772068C06910F4407F2046F0
:100F000002D0FFF79EFF04E000F06EF8204600F0EC
:100F100027F92777E80708D0F00706D021686FF097
:100F200001000861204600F067F9280608D5300660
:100F300006D521686FF0800008612046FFF76AFE41
:100F4000680608D5700606D521686FF04000086174
:100F5000204600F052F9A8060AD5B00608D5216847
:100F60006FF0200008612046BDE8F041FFF753BE56
:100F7000BDE8F08100B585B000210091019102919A
:100F80000391026814480221B2F1804F14D0134B30
:100F90009A420FD1826942F008028261806903910E
:100FA00000F0080004900120CDE9000169460C48DA
:100FB000FFF728FA05B000BD826942F004028261A1
:100FC000806900F0040004900420CDE900010320B2
:100FD000039069460348EBE700100240000400401C
:100FE000000C014000080140704770B5044690F8BD
:100FF0003C0000260D4601280FD0012084F83C005B
:101000006AB1042A1DD0082A2FD00C2A3FD001260D
:10101000002084F83C00304670BD022070BD20687E
:1010200000F068FC2068816941F008018161206856
:10103000816921F004018161206881692A69114375
:1010400011E0206800F07EFC2068816941F40061B5
:1010500081612068816921F48061816120688169F2
:101060002A6941EA02218161D2E7206800F096FCFA
:101070002068C16941F00801C1612068C16921F09F
:101080000401C1612068C1692A69114311E0206827
:1010900000F0B0FC2068C16941F40061C1612068C2
:1010A000C16921F48061C1612068C1692A6941EA8E
:1010B0000221C161ACE710B5040003D094F83D00F3
:1010C00010B107E0012010BD002084F83C0020464C
:1010D00000F01EF8022084F83D00211D206800F079
:1010E000B3FB012084F8460084F83E0084F83F00FA
:1010F00084F8400084F8410084F8420084F84300FA
:1011000084F8440084F8450084F83D00002010BDB8
:1011100008B501681048B1F1804F14D00F4A9142D0
:1011200019D1C16941F00201C161C069002200F01A
:101130000200009011461D20FFF7BAFABDE80840F2
:101140001D20FFF7A7BAC16941F00101C161C06963
:1011500000F00100009008BD0010024000040040B3
:101160007047000010B50446022249B104290ED090
:10117000082913D094F84100012816D0012010BD91
:1011800094F83E000128F9D184F83E200FE094F84D
:101190003F000128F2D184F83F2008E094F8400095
:1011A0000128EBD184F8402001E084F8412001229D
:1011B000206800F07FFB0E492068884203D1426C12
:1011C00042F4004242642068884205D0B0F1804F6A
:1011D00002D00849884204D1816801F0070106293C
:1011E00003D0016841F001010160002010BD000042
:1011F000002C014000040040704770477047704762
:10120000F8B5016804460868CA684B6910F00F0F0A
:101210004FF0000559D003F0010602F490773743F0
:1012200065D0C10705D0D10503D5616C41F001013E
:101230006164410705D5D90703D0616C41F0020113
:101240006164810705D5D90703D0616C41F00401C1
:101250006164010707D502F02001314303D0616CBE
:1012600041F008016164616C00293AD0800604D520
:10127000900602D5204600F031FC20684069616C80
:10128000C0F38010090700D460B3204600F0FFFBD4
:1012900020684069400621D52068143050E8001FBE
:1012A00021F0400140E80012002AF5D1E06BA8B11E
:1012B0006D494163E06BFFF715F8002811D0E06B32
:1012C000416B01B0BDE8F040084783060FD5930697
:1012D0000DD52046BDE8F84000F000BC2046FFF7E1
:1012E0008EFFF8BD2046FFF78AFF6564F8BD266BC8
:1012F0002023012E7CD1C6067AD5D60678D508687B
:101300004868009048694FF00206400640D5E16BFE
:10131000086840680004000CE8D0A28D8242E5D93C
:10132000E085886920282DD020680C3050E8001F07
:1013300021F4807140E80012002AF5D120681430B1
:1013400050E8001F21F0010140E80012002AF5D109
:101350002068143050E8001F21F0400140E80012DE
:10136000002AF5D184F84230256320680C3050E81B
:10137000001F21F0100140E80012002AF5D1E06BB7
:10138000FEF78DFF6663A08DE18D401A81B22AE0E1
:10139000A08DE18D401A81B2E08D0028A6D00029F1
:1013A000A4D022680C3252E8000F20F4907042E87A
:1013B0000007002FF5D12068143050E8002F22F0EC
:1013C000010240E80027002FF5D184F84230256360
:1013D00020680C3050E8002F22F0100240E8002373
:1013E000002BF5D166632046FFF708FFF8BDFFE745
:1013F00005062BD5150629D594F841002128F5D1ED
:10140000A068B0F5805F01D12069B0B1206A411CAD
:101410002162216800784860E08C401E0004000CC6
:10142000E084E3D12068C16821F08001C1602068B8
:10143000C16841F04001C160D8E7206A0088C0F36C
:1014400008004860206A801C2062E5E74006CDD590
:101450005006CBD5CA68204622F04002CA6084F804
:10146000413000F084F8C1E77F1A000870B504002D
:1014700004D094F84100002510B106E0012070BDB1
:1014800084F84050204600F023F8242084F84100DE
:101490002068C16821F40051C160204600F080FB43
:1014A0002068016921F4904101612068416921F0BF
:1014B0002A0141612068C16841F40051C16065643E
:1014C000202084F8410084F842006563002070BD4C
:1014D00030B585B000240094019402940394006810
:1014E000184988422CD11848816941F480418161B2
:1014F000816901F480410491816941F004018161B5
:101500008069124D00F0040004904FF400700090C8
:10151000022001900320039069462846FEF772FFDF
:101520002815CDE90004694628460294FEF76AFFB3
:10153000002211462520FFF7BBF82520FFF7AAF867
:1015400005B030BD003801400010024000080140E5
:1015500090F84230202B01D00220704721B11AB1FF
:101560000023036300F078BB012070477047704789
:10157000FEE700002DE9F04186B0002431480094D8
:10158000019402940394816941F0100181618169A1
:1015900001F010010491816941F0200181618169AC
:1015A00001F020010491816941F0040181618169A8
:1015B00001F004010491816941F0080181618069B1
:1015C000214F00F0080004900022F0213846FEF779
:1015D000FEFFDFF87880BE14002231464046FEF759
:1015E000F6FF0125F020CDE9000502956946384651
:1015F0000395FEF707FF0320CDE90240CDE9006522
:1016000069464046FEF7FEFE680300901048CDE9AB
:10161000010469464046FEF7F5FE48F2C010CDE9E8
:101620000004694640460294FEF7ECFE0022114693
:101630002820FFF73DF82820FFF72CF806B0BDE87A
:10164000F08100000010024000080140000C014041
:101650000000311010B586B00024174800940194A2
:101660000294039404941349059401604721C0E94E
:1016700001144EF65F21C0E9031444618461FFF751
:10168000FBFA08B1FEF709FE4FF48050009069465E
:101690000948FFF768FB08B1FEF7FFFD049404A9B1
:1016A00005480594FFF7B8FA002801D0FEF7F5FDCC
:1016B00006B010BD002C01402000002010B58AB0FB
:1016C000002407941C2168460894FEF77DFD154808
:1016D0004FF0804101602321C0E901146321C0E97A
:1016E00003148461FFF7E7FC08B1FEF7D6FD079409
:1016F00007A90C480894FFF78FFA08B1FEF7CDFD53
:101700006020CDE90004029408226946054804944B
:10171000FFF76BFC08B1FEF7C0FD0248FFF72AFC9B
:101720000AB010BD6800002010B58AB000240794EC
:101730001C2168460894FEF747FD164814490160CD
:101740004721C0E9011444F61F61C0E90314846114
:10175000FFF7B1FC08B1FEF7A0FD079407A90D48FB
:101760000894FFF759FA08B1FEF797FD6020CDE91C
:10177000000402940822694606480494FFF735FCE9
:1017800008B1FEF78AFD0348FFF7F4FB0AB010BD6D
:1017900000040040B00000200C4810B50A49016068
:1017A0004FF416514160002181600C22C160C0E9F4
:1017B00004128161C161FFF759FE002803D0BDE822
:1017C0001040FEF76ABD10BD00380140F80000204F
:1017D000FEE7FEE770477047FEF704BF30B58FB0F5
:1017E00028216846FEF7F0FC14210AA8FEF7ECFC5D
:1017F00001210804CDE9001000240294022504917F
:10180000CDE907504FF4E01009906846FFF75EF805
:1018100008B172B6FEE70F20CDE90A054FF48060EB
:10182000CDE90C4002210AA80E94FEF773FF0028B0
:1018300001D072B6FEE70FB030BD70470148FFF728
:1018400001BB0000B000002070B50268174B184CB7
:101850004FF08046984203D0B04201D0A04203D15D
:1018600022F070054A682A43984203D0B04201D062
:10187000A04203D122F44074CA6822434C6922F08A
:101880008002224302608A68C2620A6882629842C9
:1018900001D109690163012141610169C90703D0CF
:1018A000016921F00101016170BD0000002C0140BF
:1018B0000004004010B501F01F030121046A9940A3
:1018C0008C430462016A9A401143016210BD10B555
:1018D000846842EA032224F47F440A43224382605C
:1018E00010BD826822F070020A4342F00701816055
:1018F0007047000030B5036A026A22F001020262FA
:101900004268846924F073050C682C4323F00205B7
:101910008B682B430A4DA8420BD123F00805CB68F6
:1019200022F440722B434D6923F0040315438A6966
:101930002A434260846149684163036230BD00000C
:10194000002C014030B5026A036A23F010030362E1
:10195000436884690D6824F4E64444EA05248D68EC
:1019600022F0200242EA05120B4DA8420ED1CD68AA
:1019700022F0800242EA05124D6923F4406343EAF3
:1019800085038D6922F0400243EA85034360846148
:1019900049688163026230BD002C014030B5036AA2
:1019A000026A22F4807202624268C46923F40073FE
:1019B00024F073050C682C438D6843EA05230C4D15
:1019C000A8420ED1CD6823F4006343EA05234D6994
:1019D00022F4405242EA05128D6923F4806342EA00
:1019E00005124260C4614968C163036230BD0000F2
:1019F000002C014030B5046A026A22F4805202626F
:101A00004268C3690D6823F4E64343EA05238D6801
:101A100024F4005444EA0534064DA84204D14D692B
:101A200022F4804242EA85124260C361496801643F
:101A3000046230BD002C014010B5036A046A24F032
:101A400001040462846924F0F00444EA021423F0DF
:101A50000A020A438461026210BD10B5036A046A77
:101A600024F010040462846923F0A00324F4704479
:101A700044EA023243EA01118261016210BD10B5ED
:101A8000406A0021C185C184FFF7B9FB10BD016820
:101A90000C3151E8002F22F4907241E80023002B12
:101AA000F5D10168143151E8002F22F0010241E81C
:101AB0000023002BF5D1016B012909D101680C31FC
:101AC00051E8002F22F0100241E80023002BF5D14D
:101AD000202180F8421000210163704708B590F87A
:101AE0004210222901D0022008BD82684FF48053A1
:101AF0009A4201D1016921B1816A9A421BD04AB14F
:101B00000AE00268816A5268C2F308020A80816AA8
:101B1000891C08E0026972B10268526802F07F0213
:101B20000A70816A491C8162C18D491E0904090C31
:101B3000C18503D01BE002685268F1E70168CA68FA
:101B400022F02002CA600168CA6822F48072CA606A
:101B500001684A6922F001024A61202180F842109E
:101B600000214163026B012A03D0FFF7FFFC002034
:101B700008BD016301680C3151E8002F22F010020A
:101B800041E80023002BF5D101680A68D20602D58E
:101B90000A6849680091818DFFF730FBE7E7000094
:101BA00070B5044600680169E26821F440511143B0
:101BB00001612169A0680843616908432168CA6816
:101BC00041F20C639A430243CA6020684169A269EA
:101BD00021F44071114341611E492068884202D1BD
:101BE000FEF73EFE01E0FEF72BFE00EBC00101EB2D
:101BF0000012606864218000B2FBF0F3B3FBF1F3E4
:101C00006FF018067343B2FBF0F5B2FBF0F605EB8C
:101C10008305322303EB0515B5FBF1F5B6FBF1F6B1
:101C200005F0F00505EB0615B2FBF0F6B2FBF0F09F
:101C3000B0FBF1F06FF01802504306EB800003EBAD
:101C40000010B0FBF1F0216800F00F00284488601C
:101C500070BD00000038014081628285C28500218C
:101C60004164222180F84210016921B10168CA68EB
:101C700042F48072CA6001684A6942F001024A6116
:101C80000068C16841F02001C16000207047000079
:101C900010B52448FFF7B4FA234823490078491EB9
:101CA0003028087018D031281AD032281CD0332898
:101CB0001ED0342820D0352822D0362824D03728EA
:101CC00026D0382826D0392826D00122BDE8104059
:101CD000491C1448FFF73CBCBDE8104000F070B848
:101CE000BDE8104000F038B8BDE8104000F040B842
:101CF000BDE8104000F04CB8BDE8104000F054B80A
:101D0000BDE8104000F0C6B8BDE8104000F0D0B803
:101D1000002002E0054800E00548BDE8104000F062
:101D2000D5B80000F80000200D0000200000B442EB
:101D300000003443FEE70907090E002804DB00F128
:101D4000E02080F80014704700F00F0000F1E02060
:101D500080F8141D7047000010B5044C207800F086
:101D60005DF82078BDE8104000F070B80000002059
:101D700010B5064C20784042C0B200F04FF82078F1
:101D8000BDE810404042C0B200F060B80000002042
:101D900010B5002000F042F802480078BDE810407D
:101DA00000F054B800000020044810B5007800F09E
:101DB00035F8BDE81040002000F048B800000020D1
:101DC00010B5002000F02AF8BDE81040002000F017
:101DD0003DB80000FEF70EFCFFF700FDFFF7CAFB61
:101DE000FFF76CFCFFF7D8FCFFF79EFCFFF732FC17
:101DF00008210648FFF7B6F908210548FFF7B2F9B0
:101E0000012204490448FFF7A3FBFEE76800002015
:101E1000B00000200D000020F800002070B5094D32
:101E2000094E040001D0012200E0002210212846C2
:101E3000FEF7CDFB002220212846FEF7C8FB3068C4
:101E4000C46370BD000801406800002070B50F4DEC
:101E50000F4E04000DD0012240212846FEF7B7FBAB
:101E6000002280212846FEF7B2FB31686042C86339
:101E700070BD002240212846FEF7A9FB00228021E8
:101E80002846FEF7A4FB3068C46370BD000801401B
:101E90006800002010B5054C20784042C0B2FFF722
:101EA000BDFF2078BDE81040FFF7D0BF0000002044
:101EB00010B5054C2078FFF7B1FF2078BDE8104041
:101EC0004042C0B2FFF7C2BF0000002010B5074972
:101ED00000F01AFB064900F0F9FB064900F0B2FADF
:101EE00000F0D4FB04490968C86310BD0000344306
:101EF0000000FA440000FA43B000002021F0004244
:101F0000A2F16052B2F5801F01F0004328BFD2F168
:101F10007F6C0BD95FEA001C43EAC20242EB5070AF
:101F200018BF704728BF20F001007047B2F5801F2E
:101F3000BCBF184670474FEA410C1CF5001F02D287
:101F4000084600F08ABC70B500F028FA000000894D
:101F5000FFF7F6BF4FF00040A0F58000704700008B
:101F600002494FF0000000F0F2BC00BF0000F87F13
:101F70002DE9C04130B4DFF8A0C23CEA111418BF0B
:101F80003CEA131400F0EC8081EA03051CEA11140A
:101F900044EAD57418BF1CEA131500F0C780A4EBFF
:101FA00005044FF0004545EAC12145EAC32341EA53
:101FB000505143EA525304F17F74994204F50034BE
:101FC0004FEAC0204FEAC22208BF904200F09C8036
:101FD0004FEA13650FF24016765D4FEA134506FB94
:101FE00005F7C7F1807706FB07F74FEAD737A7FB5E
:101FF00003687642C8F58038A7FB06CE38BFA8F143
:10200000010807FB08E64FF0000EA6FB028CE6FB7A
:1020100003CEDCF1000CCEF1004E38BFAEF1010E64
:10202000A6FB0C584FF000074FF00005E6FB0E87AB
:10203000A1FB08C6A0FB07CE16EB0E0645F1000576
:10204000E1FB076515F1E04E7EBFA4F580345FEA41
:1020500046066D4116F1800745F100054FEA172746
:102060004FEA066647EA0567A6F1DE46B6F1805FED
:102070004FEA15251FD9384624F0010C05EBC47131
:10208000BCF1FE6F01EB0C1102D8F0BCBDE8008181
:1020900024425CBF01F5801E9EEAC47F02D4F0BCDE
:1020A000BDE80081244238D4F0BCA1F1C041BDE8B4
:1020B000004100F0C1B94FEAD22242EA43524FEA4E
:1020C000D323A7FB02864FEAD02040EA415007FB0A
:1020D00003661EEA0E0F4FEAD12105FB026658BFC8
:1020E000A6EB0056B6EB00564FEA520E4EEAC37E00
:1020F00018EB0E0E56EB530EBDD518EB02085E41E1
:102100007F1C55F10005B6E74FF480154FF000072E
:102110004FF000064FF00008ADE7F0BC4FF00000B4
:1021200001F1C04101F00041BDE8008111EA0C1F3E
:102130000CEA131500D00CE013EA0C1F00F0258008
:102140004FF00000F0BC81EA030101F00041BDE85E
:102150000081F0BCBDE8004181EA030100F06CB9E8
:10216000F0BCBDE8004170B500F018F9097EFC3EF6
:1021700000F007B881EA03014FF0000001F00041D0
:10218000704781EA030100F057B9F0BCBDE8004197
:102190004FF0000021497047FFFDFBF9F7F5F4F21D
:1021A000F0EEEDEBE9E8E6E4E3E1E0DEDDDBDAD8F2
:1021B000D7D5D4D3D1D0CFCDCCCBCAC8C7C6C5C450
:1021C000C2C1C0BFBEBDBCBBBAB9B8B7B6B5B4B367
:1021D000B2B1B0AFAEADACABAAA9A8A8A7A6A5A452
:1021E000A3A3A2A1A09F9F9E9D9C9C9B9A99999816
:1021F0009797969595949393929191908F8F8E8EB9
:102200008D8C8C8B8B8A8989888887878685858445
:1022100084838382828181800000FF070000F87F31
:10222000B0FA80F310FA03F10AD0C3F11D0303F5ED
:1022300080634FEA41504FEA035202EBD1217047CD
:102240004FF0000070470000DFF848C170B51CEA8D
:10225000111E1EBF1CEA13159EEA0C0F95EA0C0F07
:1022600000F06F8081EA030423EA4C134EEAD47E27
:1022700021EA4C1141F4801143F48013AE44A1FBD8
:10228000024CA0FB0365AEF17F7E361955EB0C05C1
:10229000A1FB034C4CF10003A0FB021C16EB0C0647
:1022A000654153F10003094218BF46F0010613F4DB
:1022B000007F0BD14FEA03314FEA0530340341EA86
:1022C000155140EA16506FF003020AE04FEAC321AD
:1022D0004FEAC520F40241EA555140EA56506FF0EA
:1022E000020202EB2E4201EB025585EACE710AD0C2
:1022F0005FEA440C18BF24F0004450F1000041F1A3
:10230000000120EAD47040F2FE7C624500D270BD2C
:10231000A84214BF4FF080444FF04044002E08BF45
:102320000024BEF1806FA8BFA1F1C041BDE870409C
:1023300080F282804FF0000001F1C04101F00041C5
:1023400070479EEA0C0F0CEA131518BF95EA0C0FA4
:1023500006D04FF0000081EA030E0EF0004170BD80
:1023600000F01CF88900013E00F007B800F009B841
:102370004FEA430C5FEA5C5C08D081EA030100F09D
:102380005BB84FEA410C5FEA5C5CF6D14FF00000AD
:10239000014970470000FF070000F87F0EF1020EB0
:1023A0002EF0030E5EF8046B364205D4012A43EB8F
:1023B000030515F5001F12D8012841EB010C1CF58F
:1023C000001F0CD80ED14FEAD17C15F5001F0CEB85
:1023D0004C0C0CF1020C08BF4CEBD37C04E04FF02A
:1023E000080C01E04FEAD37C0CEB4C0526FA05F60D
:1023F00006F00706B6F1040C06D20EEB860CBDE81B
:1024000070404CF0010C6047DFE80CF0090B020251
:102410004FF000414FF00000A1F5002170BD1946BA
:102420001046012851EB010418BFD4F5001484BFF5
:10243000002001F0004170BD0808A0F500114FEA2E
:102440003101704790EA010F48BF81F0004100F16F
:102450001082421A3CBF801A89184FEAD0524FF0BE
:102460007F4C1CEA410FA2EBD15318BF9CEA026FCC
:1024700000F03B804FF0004C4CEA00204CEA012178
:1024800021FA03FC10EB0C0C1ED202F1FF325FEAC2
:102490001C2040EBC25038BF70471CF07F0F4FEA42
:1024A000400C18BFBCF17F4F38BF7047C3F1200309
:1024B000994008BF20F00100BCF17F4F38BF704742
:1024C000A0F1C04000F0C9B94FEA3C00000A40EB5F
:1024D000C25028BF1CF0FF0F4FEA400CE6D018BFD7
:1024E000BCF17F4F38BF7047EAE79CEA026F05D026
:1024F00010EA5C0F08BF00F00040704710B500F014
:1025000066F900BF64FBBE3E4FF47F0C1CEAD0129C
:102510001EBF1CEAD11392EA0C0F93EA0C0F00F0D5
:10252000858090EA010F48BF42F4807240F4000CAD
:1025300041F400002CF07F4120F07F4000B5814243
:10254000A2EB03020FF2081CACEB504EC0F10000EE
:102550009EF800E04FEA4E0E00FB0EFC38BF49002B
:102560004FEA2C1C02F5FA020CFB0EF34FEACE1ECA
:102570004FEA112C4FEAC1210EEB635E42EB22427F
:102580000EFB0CFC4FEA1C5300FB03114FEA112C0D
:102590004FEA01310EFB0CFC4FEADC4C00FB0C1146
:1025A000C14228BF09184CEB03335DF804EB10EB74
:1025B000410143EBC250B2F57C0F38BF704729D5BB
:1025C00012F0F00F1CBF00F1C04000F00040704757
:1025D000008182838485868788898B8C8D8E8F91FC
:1025E0009293959697999A9C9D9FA0A2A3A5A7A820
:1025F000AAACAEB0B2B3B5B7B9BCBEC0C2C5C7C94C
:10260000CCCED1D4D7D9DCDFE2E6E9ECF0F3F7FAAF
:10261000FE0000004FEA400C0CF1807CBCF17E4FC4
:1026200028BF7047B0F1C04000F017B990EA010F21
:102630000CEAD11348BF42F48072624538BF63454B
:1026400007D213F47F0F16D080EA010000F000409B
:10265000704710B500F0BBF8097EFC3E00F005B8ED
:1026600080EA010000F00040704780EA010000F0BD
:10267000004000F0F2B812F47F0F04BF0248704728
:1026800080EA010000F0E9B80000C07FC10DD1F17F
:102690009E0206DB4FEA002343F0004323FA02F0D8
:1026A0007047004207D54FEA4001B1F1FE4F02D218
:1026B0004FF00000704710B500F089F8499224806F
:1026C000002070476FEA2000704700004FF47F0C35
:1026D0001CEAD0121EBF1CEAD11392EA0C0F93EA37
:1026E0000C0F00F0478090EA010F48BF42F480725F
:1026F0004FF0004C4CEA00204CEA012102EB0302AF
:10270000A0FB0113A2F50002002918BF43F001034A
:102710005B0028BF4FEA330342EB22425FEA132CEF
:102720004CEBC2502EBFBCEB436FB2F57C0F704731
:102730004FEA036CBCF1004F08BF20F00100B2F576
:102740007C0F38BF70470BD582F0FF0212F5803F37
:10275000C8BF704700F1C040D8BF00F000407047CC
:1027600000F5000C5FEA4C0C48BF7047B0F1C04068
:1027700000F073B890EA010F0CEAD11348BF42F49D
:102780008072624538BF634504D280EA010000F0E0
:102790000040704710B500F01AF800BF8900013EF4
:1027A00000F007B800F009B85FEA410C5FEA1C6C62
:1027B00008D080EA010000F050B85FEA400C5FEA00
:1027C0001C6CF6D14FF00040A0F5800070470EF170
:1027D000020E2EF0030E5EF8044B244204D44FEA9E
:1027E0004102B2F17F4F11D84FEA4003B3F17F4F5E
:1027F0000CD80ED14FEAD07CB2F17F4F0CEB4C0CD1
:102800000CF1020C08BF4CEBD17C04E04FF0080C3B
:1028100001E04FEAD17C0CEB4C0324FA03F404F002
:102820000704B4F1040C06D20EEB840CBDE8104092
:102830004CF0010C6047DFE80CF0070802024FF093
:102840000040A0F5800010BD0846420018BFD2F13C
:10285000807288BF00F0004010BDFF2141EAD050D7
:10286000C005704790EA010F48BF81F000413FF575
:10287000F0AD421A04D882F00042A0EB02001144ED
:102880004FEAD0524FF07F4C1CEA410FA2EBD153DC
:1028900018BF9CEA026F4AD04FF0004C4CEA00206F
:1028A0004CEA012121FA03FCB0EB0C0C0FD412F01E
:1028B000FE0F36D05FEA4C001DD5001240EBC2502F
:1028C00038BF70471CF03F0F18BF70470BE0A2F1F4
:1028D00001025FEA1C2040EBC25038BF70471CF079
:1028E0007F0F18BF7047C3F12003994014BF401EEB
:1028F00020F00100704780084FEA122308BF70479C
:10290000B0FA80FCA2EB0C02CCF1280C60FA0CF0BF
:1029100093EA122F04BF00EBC25070474FEAC37016
:102920007047130A5FEADC1008BF7047F6E79CEABD
:10293000026F04D010EA5C0F08BF0020704710B58A
:10294000FFF745FF40DFF63E81F0004070470CF096
:102950000F03092B08BF082000F059800A2B0BD069
:10296000082B18BF704708BF1CF0400F0AD04FF06B
:1029700000004FF0000170471CF0400F18BF4FF0EF
:10298000004070471CF0100F08D020F0704300F09A
:102990007F4242EAD3014FEA4370704700F0604043
:1029A00021F07F4242EA000201F07F4040EA72706B
:1029B00070474FF0FF0C4CF4E06C1CEA11531CBF45
:1029C0009CEA030C9445C2BFDA4201EB0251704706
:1029D000002B0DD0BCF1000F0FD0002A01F00041F8
:1029E000A4BF41F0E04141F07F614FF0000070472B
:1029F00001F000414FF00000704750EA01334FF002
:102A00009B0C18BF4CF0806C7FF4AAAA70471CF492
:102A1000801F11D01CF4E02F03D06FEACC314900A5
:102A200070474FF04050EFF3008222F0704242EACC
:102A3000000282F3008870474FF0000070470102E7
:102A400002030405060708090A0B0C0D0E0F1010EF
:102A5000000000000000000001020304060708094E
:102A60000000000001020304882A00080000002082
:102A70002000000028010008A82A000820000020EB
:102A80008007000044010008000000000000000072
:102A90000000000000000000010000001000000025
:082AA0000000000000127A00A2
:04000005080000ED02
:00000001FF
